:020000040800F2
:10000000680600202902000889030008810300080F
:1000100085030008E302000825070008000000002F
:10002000000000000000000000000000490400087B
:10003000E702000800000000050400083905000878
:10004000430200084302000843020008430200087C
:10005000430200084302000843020008430200086C
:10006000430200084302000843020008430200085C
:10007000430200084302000843020008430200084C
:10008000430200084302000843020008430200083C
:10009000430200084302000843020008430200082C
:1000A000430200084302000843020008430200081C
:1000B000430200084302000843020008430200080C
:1000C00043020008430200084302000843020008FC
:1000D00043020008430200084302000843020008EC
:1000E00043020008430200084302000843020008DC
:1000F00043020008430200084302000843020008CC
:1001000043020008430200084302000843020008BB
:100110004302000843020008A50500084302000846
:10012000430200084302000843020008430200089B
:10013000430200084302000843020008430200088B
:10014000430200084302000843020008430200087B
:10015000430200084302000843020008430200086B
:10016000430200084302000843020008430200085B
:10017000430200084302000843020008430200084B
:10018000430200084302000800F002F800F03CF8C7
:100190000AA090E8000C82448344AAF10107DA45E2
:1001A00001D100F031F8AFF2090EBAE80F0013F0F8
:1001B000010F18BFFB1A43F001031847BC050000EC
:1001C000DC050000103A24BF78C878C1FAD852077D
:1001D00024BF30C830C144BF04680C6070470000C1
:1001E0000023002400250026103A28BF78C1FBD840
:1001F000520728BF30C148BF0B6070471FB500F0E1
:10020000B5FA1FBD10B510BD00F031F81146FFF76B
:10021000F5FF00F0A5FA00F04FF803B4FFF7F2FF86
:1002200003BC00F057F80000094880470948004720
:10023000FEE7FEE7FEE7FEE7FEE7FEE7FEE7FEE796
:10024000FEE7FEE704480549054A064B70470000F3
:100250003D050008890100086800002068060020AC
:10026000680200206802002070477047704775469A
:1002700000F02CF8AE4605006946534620F0070012
:10028000854618B020B5FFF7DDFFBDE820404FF0F0
:1002900000064FF000074FF000084FF0000B21F070
:1002A0000701AC46ACE8C009ACE8C009ACE8C0093D
:1002B000ACE8C0098D46704710B50446AFF3008026
:1002C0002046BDE81040FFF7A8BF00000048704777
:1002D0000400002001491820ABBEFEE72600020002
:1002E000704700BFFEE77047F0B50A4600210023C3
:1002F000002400BF3DE0012505FA01F3156805EA79
:1003000003049C4234D105684F000326BE40B54328
:10031000056015794E00B5400668354305601579CE
:10032000012D02D01579022D16D185684F000326C4
:10033000BE40B543856055794E00B540866835436B
:100340008560456801268E40B543456045689679CD
:100350008E40B6B235434560C5684F000326BE40A7
:10036000B543C560D5794E00B540C6683543C56014
:10037000491C1029BFD3F0BD42694A404261704711
:1003800000BFFEE700BFFEE77047000070B5002128
:1003900000230F22C4781CB3174C246804F4E064D3
:1003A000C4F5E064C4F30721C1F10404E3B20A41D7
:1003B00044789C40E1B28478144021430C07210E1C
:1003C0000E4C05786155047804F01F050124AC40FB
:1003D00005786D11AD0005F1E025C5F8004109E093
:1003E000047804F01F050124AC40054D0678761111
:1003F00045F8264070BD00000CED00E000E400E090
:1004000080E100E07047000029B1064A126802430B
:10041000044B1A6004E0034A12688243014B1A60DD
:10042000704700003038024029B1064A1268024382
:10043000044B1A6004E0034A12688243014B1A60BD
:100440007047000040380240704700000CB50020A3
:10045000019000903448006840F4803032490860D0
:1004600000BF3148006800F4003000900198401C43
:100470000190009818B90198B0F5A04FF1D12A4821
:10048000006800F4003010B10120009001E000206D
:1004900000900098012846D123484030006840F081
:1004A00080502149403108602048006840F44040B5
:1004B0001E4908601C48083000681B490831086064
:1004C0000846006840F4004008600846006840F4B0
:1004D000A05008601648091F0860081F006840F017
:1004E0008070091F086000BF0F48006800F00070AE
:1004F0000028F9D040F205700E4908600A4808301B
:10050000006820F0030008490831086008460068C8
:1005100040F00200086000BF03480830006800F0A7
:100520000C000828F8D10CBD0038024000700040D3
:1005300019544007003C02407047000010B51548B0
:10054000006840F47000134908601348006840F0E8
:1005500001001149086000200F49083108600E4869
:1005600000680E4908400C4908600D48091D0860E4
:10057000081F006820F48020091F08600020064939
:100580000C310860FFF762FF4FF0006001498039CD
:10059000086010BD88ED00E000380240FFFFF6FE65
:1005A0001030002410B501210C4800F05EF898B11D
:1005B0000B480068401C0A490860B0F57A7F07D1F3
:1005C0004FF480510748FFF7D7FE00200449086028
:1005D0000121024800F03AF810BD00000010004070
:1005E00000000020000802401FB501211020FFF785
:1005F0001BFF0020ADF80C00ADF8060040F2E7301C
:1006000002902A20ADF8040000208DF80E0001A908
:100610000D4800F045F8012211460B4800F036F86D
:1006200036208DF8000001208DF8030000208DF8A1
:10063000010001208DF802006846FFF7A7FE0121A6
:10064000014800F006F81FBD00100040CA430282B6
:10065000704721B1028842F00102028004E0028862
:100660004FF6FE731A400280704730B502460020F4
:1006700000230024158A05EA0103958905EA01048F
:1006800013B10CB1012000E0002030BD1AB1838904
:100690000B43838102E083898B4383817047000091
:1006A00000220288184B98420ED0184B98420BD06B
:1006B000B0F1804F08D0164B984205D0154B9842A8
:1006C00002D0154B984204D14FF68F731A404B88D5
:1006D0001A43124B984207D0114B984204D04FF660
:1006E000FF431A400B891A4302804B68C3620B8890
:1006F0000385054B984202D0044B984201D18B7A76
:1007000003860123838270470000014000040140FA
:100710000004004000080040000C004000100040B1
:100720000014004000BFFEE71CB501210420FFF7C4
:100730006BFE01208DF8040000208DF806004FF4B8
:10074000E050009000208DF8070003208DF8050090
:1007500069460248FFF7C8FD1CBD000000080240C2
:10076000FFF742FFFFF7E0FF00BFFEE74FF04070EA
:10077000E1EE100A70470000980700080000002012
:1007800004000000C40100089C07000804000020C9
:0C07900064060000E0010008000000000A
:0400000508000229C4
:00000001FF
